S010000052656365697665722E73726563DF
S11300000C943B000C9458000C9458000C94580029
S11300100C9458000C9458000C9458000C945800FC
S11300200C9458000C9458000C9458000C945800EC
S11300300C9458000C9458000C942E020C94580004
S11300400C9458000C9458000C9458000C945800CC
S11300500C9458000C9458000C9458000C945800BC
S11300600C9458000C945800A201AC01B601C001D4
S1130070CB01D601E10111241FBECFEFD8E0DEBFD2
S1130080CDBF11E0A0E0B1E0E8EAFAE002C00590DB
S11300900D92A831B107D9F721E0A8E1B1E001C080
S11300A01D92A933B207E1F70E944C010C9452054A
S11300B00C94000014B884B18E6284B9249815B8E5
S11300C02A9A299887B1806387B9529A5398449899
S11300D0429A14BC84B5826084BDEEE6F0E080816F
S11300E08260808385B5856085BD88EC87BD789402
S11300F008958093C4009093C500E1ECF0E0808102
S1130100886180838EE08093C2000895E0ECF0E083
S1130110908195FFFDCF8093C6000895CF93DF9320
S1130120EC018881882331F021960E948600899110
S11301308111FBCFDF91CF91089580ED8CBD81E8D3
S11301408DBD0895E8E1F1E027E331E09AEA9EBD30
S11301500DB407FEFDCF8EB58193E217F307B9F70F
S113016008958EBD0DB407FEFDCF089529988FE242
S113017095E70197F1F700C000002A9883E20E94F6
S1130180B10081E00E94B1002A9A2A988AE20E9472
S1130190B10089E60E94B1008DEE0E94B10085E7AE
S11301A00E94B1002A9A2A9881E20E94B10080E05C
S11301B00E94B1002A9A2A9882E20E94B10081E04A
S11301C00E94B1002A9A2A9884E20E94B10080E039
S11301D00E94B1002A9A2A9885E20E94B10080E028
S11301E00E94B1002A9A2A9886E20E94B10086E011
S11301F00E94B1002A9A2A9887E20E94B10080E402
S11302000E94B1002A9A2A9881E30E94B10081E0F9
S11302100E94B1002A9A2A9882EE0E94B1002A9A7A
S11302202A9881EE0E94B1002A9A2A9880E20E94BC
S1130230B10083E30E94B1002A9A87E893E1019711
S1130240F1F700C000000895299A4B9B08C08AE189
S11302508A95F1F700C04598449A4B99F8CF4B9989
S113026019C0459A449829982A9881E60E94B100B9
S11302700E94A2002A9A299A2A9887E20E94B10031
S113028080E40E94B1002A9A2A9882EE0E94B1006A
S11302902A9A089545980895CF93DF93CDB7DEB792
S11302A0C05BD1400FB6F894DEBF0FBECDBF0E9435
S11302B05A0080E490E00E9479000E949D000E9410
S11302C0B6000F2EF8E1CF2EF1E0DF2EF02D06E37D
S11302D011E04E0125EB820E911C3E0187E9680E68
S11302E0711C2E0199E7490E511C1E01ABE52A0E23
S11302F0311CCE01CD96C355DE4F99838883CD5AE8
S1130300D140DE015F96C155DE4FB983A883CF5A31
S1130310D1405E01B3EDAB0EB11C6894EE24E3F85A
S1130320F12C0E942401D6015E96EC918E2F90E070
S1130330FC013197E730F10508F04DC0EC5CFF4F4C
S11303400C945402E8E1F1E0DE01119681918D9361
S11303500E171F07D9F73FC0E8E1F1E0DE015F9611
S113036081918D930E171F07D9F735C0E8E1F1E0AD
S1130370DE01DD9681918D93E017F107D9F72BC04B
S1130380E8E1F1E0DE01A55ABF4F81918D930E178C
S11303901F07D9F720C0E8E1F1E0DE01A758BF4FFD
S11303A081918D93E017F107D9F715C0E8E1F1E0E9
S11303B0DE01A956BF4F81918D93E017F107D9F75C
S11303C00AC0E8E1F1E0DE01AB54BF4F81918D93A7
S11303D0E017F107D9F7B1E0EB1AF10809F0A1CF62
S11303E09F928F927F926F925F924F923F922F9241
S11303F0C255DE4F2881CE5AD1402F93C355DE4FCC
S11304008881CD5AD1408F93C055DE4F9881C05B0F
S1130410D1409F93C155DE4FA881CF5AD140AF93AD
S113042081E090E08C0F9D1F9F938F93A0E0B1E03B
S1130430BF93AF931F928AED8F93BF92AF920E94A6
S11304405A02C5010E948E0085E191E00E948E004F
S11304500FB6F894DEBF0FBECDBF5FCF1F920F92D1
S11304600FB60F9211248F939F938091370190912F
S11304703801499749F49BB184E089278BB91092DC
S113048038011092370109C08091370190913801E9
S1130490019690933801809337019F918F910F902B
S11304A00FBE0F901F901895EE0FFF1F0590F4914B
S11304B0E02D0994AEE0B0E0E0E6F2E00C9429050A
S11304C00D891E898F89988D26E02C831A830983D0
S11304D097FF02C080E090E801979E838D83AE0170
S11304E0455E5F4F698D7A8DCE0101960E948A0226
S11304F04D815E8157FD0AC02F813885421753070D
S11305000CF49A01F801E20FF31F10822E96E4E036
S11305100C944505ABE0B0E0E0E9F2E00C941B0577
S11305206C017B018A01FC0117821682838181FFA1
S1130530CCC1CE0101963C01F6019381F70193FDF4
S1130540859193FF81917F01882309F4BAC1853293
S113055039F493FD859193FF81917F01853229F4CC
S1130560B60190E00E948104E7CF912C212C312C1C
S1130570FFE1F315D8F08B3279F038F4803279F05A
S11305808332A1F4232D20611DC08D3261F08033AC
S113059069F4232D216016C0832D8260382EE32D4B
S11305A0E4603E2E2AC0F32DF8601DC037FC2DC038
S11305B020ED280F2A3040F08E32B9F436FC81C188
S11305C0232D2064322E19C036FE06C08AE0989E80
S11305D0200D1124922E11C0EAE02E9E200D11242C
S11305E0222EF32DF0623F2E08C08C3621F4832D89
S11305F08068382E02C0883641F4F70193FD859156
S113060093FF81917F018111B3CF982F9F7D9554E2
S1130610933028F40C5F1F4F9FE399830DC08336FA
S113062031F0833771F0833509F059C021C0F801E6
S1130630808189830E5F1F4F88248394912C5301FA
S113064013C02801F2E04F0E511CF801A080B180C4
S113065036FE03C0692D70E002C06FEF7FEFC50165
S11306600E9476044C018201F32DFF773F2E16C0C1
S1130670280122E0420E511CF801A080B18036FE10
S113068003C0692D70E002C06FEF7FEFC5010E94C7
S11306906B044C01F32DF0683F2E820133FC1BC028
S11306A0822D90E088169906B0F4B60180E290E0BD
S11306B00E9481042A94F4CFF50137FC859137FE1A
S11306C081915F01B60190E00E94810421102A9477
S11306D021E0821A91088114910471F7E8C08436EC
S11306E011F0893641F5F80137FE07C06081718148
S11306F0828193810C5F1F4F08C060817181072E36
S1130700000C880B990B0E5F1F4FF32DFF763F2EC5
S113071097FF09C090958095709561957F4F8F4F95
S11307209F4FF0683F2E2AE030E0A3010E94BD04F1
S1130730882E861845C0853731F4232D2F7EB22E9E
S11307402AE030E025C0932D997FB92E8F36C1F071
S113075018F4883579F0B5C0803719F0883721F05E
S1130760B0C0E92FE061BE2EB4FE0DC0FB2DF460D5
S1130770BF2E09C034FE0AC0292F2660B22E06C03F
S113078028E030E005C020E130E002C020E132E0A2
S1130790F801B7FE07C060817181828193810C5F8B
S11307A01F4F06C06081718180E090E00E5F1F4F93
S11307B0A3010E94BD04882E8618FB2DFF773F2ECF
S11307C036FE0DC0232D2E7FA22E891458F434FE3C
S11307D00BC032FC09C0832D8E7EA82E05C0B82C18
S11307E0A32C03C0B82C01C0B92CA4FE0FC0FE0179
S11307F0E80DF11D8081803321F49A2D997EA92E74
S113080009C0A2FE06C0B394B39404C08A2D8678AE
S113081009F0B394A3FC11C0A0FE06C0B21488F47E
S1130820280C922C9B180EC0B21460F4B60180E21E
S113083090E00E948104B394F7CFB21418F42B18FB
S113084002C0982C212CA4FE10C0B60180E390E0D5
S11308500E948104A2FE17C0A1FC03C088E790E0B7
S113086002C088E590E0B6010CC08A2D867859F064
S1130870A1FE02C08BE201C080E2A7FC8DE2B601BA
S113088090E00E948104891438F4B60180E390E07A
S11308900E9481049A94F7CF8A94F301E80DF11D24
S11308A08081B60190E00E9481048110F5CF22205E
S11308B009F442CEB60180E290E00E9481042A94B9
S11308C0F6CFF6018681978102C08FEF9FEF2B96BA
S11308D0E2E10C943705FC01059061507040011071
S11308E0D8F7809590958E0F9F1F0895FC01615055
S11308F0704001900110D8F7809590958E0F9F1F3E
S113090008950F931F93CF93DF93FB01238121FD60
S113091003C08FEF9FEF2CC022FF16C04681578182
S1130920248135814217530744F4A081B1819D018C
S11309302F5F3F4F318320838C93268137812F5F34
S11309403F4F3783268314C08B01EC01FB010084E5
S1130950F185E02D0995892BE1F6D80116968D9144
S11309609C911797019617969C938E931697CE0198
S1130970DF91CF911F910F910895FA01AA27283092
S113098051F1203181F1E8946F936E7F6E5F7F4F58
S11309908F4F9F4FAF4FB1E03ED0B4E03CD0670FD4
S11309A0781F891F9A1FA11D680F791F8A1F911D27
S11309B0A11D6A0F711D811D911DA11D20D009F477
S11309C068943F912AE0269F11243019305D3193B9
S11309D0DEF6CF010895462F4770405D4193B3E0A2
S11309E00FD0C9F7F6CF462F4F70405D4A3318F049
S11309F0495D31FD4052419302D0A9F7EACFB4E0FA
S1130A00A6959795879577956795BA95C9F70097B1
S1130A106105710508959B01AC010A2E0694579552
S1130A20479537952795BA95C9F7620F731F841FA9
S1130A30951FA01D08952F923F924F925F926F923F
S1130A407F928F929F92AF92BF92CF92DF92EF925A
S1130A50FF920F931F93CF93DF93CDB7DEB7CA1BDB
S1130A60DB0B0FB6F894DEBF0FBECDBF09942A8806
S1130A70398848885F846E847D848C849B84AA84AE
S1130A80B984C884DF80EE80FD800C811B81AA813B
S1130A90B981CE0FD11D0FB6F894DEBF0FBECDBF06
S10B0AA0ED010895F894FFCF65
S1130AA825732C25732C25732C25732C25732C2541
S10B0AB8732C2573000A0D00E4
S9030000FC
