:100000000C94B1000C94C3000C94C3000C94C30076
:100010000C94C3000C94C3000C94C3000C94C30054
:100020000C94C3000C94C3000C94C3000C94C30044
:100030000C94C3000C94C3000C94C3000C94C30034
:100040000C94C3000C94C3000C94C3000C94C30024
:100050000C94C3000C94C3000C94C3000C94C30014
:100060000C94C3000C94C30000407A10F35A00A013
:10007000724E18090010A5D4E80000E87648170071
:1000800000E40B54020000CA9A3B000000E1F505B1
:10009000000080969800000040420F000000A086FB
:1000A00001000000102700000000E803000000002D
:1000B0006400000000000A000000000001000000D1
:1000C00000002C76D888DC674F0823DFC1DFAE59EB
:1000D000E1B1B796E5E3E453C63AE651997696E87E
:1000E000E6C28426EB898C9B62ED407C6FFCEFBC02
:1000F0009C9F40F2BAA56FA5F490055A2AF75C932D
:100100006B6CF9676DC11BFCE0E40D47FEF520E662
:10011000B500D0ED902E0300943577050080841E45
:10012000080000204E0A000000C80C333333330FA0
:10013000986E12831141EF8D2114893BE65516CF3D
:10014000FEE6DB18D1844B381BF77C1D901DA4BB49
:10015000E424203284725E228100C9F124ECA1E5FE
:100160003D2711241FBECFEFD8E0DEBFCDBF21E079
:10017000A0E0B1E001C01D92AC31B207E1F70E94EE
:1001800020030C94D5080C9400001092B90080E272
:100190008093B800089594EA9093BC00ECEBF0E0F3
:1001A00090819923ECF79091B900987F903199F460
:1001B0008093BB0084E88093BC00ECEBF0E080818E
:1001C0008823ECF78091B900887F803431F0803249
:1001D00031F083E0089580E0089581E0089582E0A1
:1001E000089584E98093BC00ECEBF0E0808184FD0D
:1001F000FDCF0895BF92CF92DF92EF92FF920F93BF
:100200001F93CF93DF93B82ECCEBD0E00F2EF4EA00
:10021000DF2EF02D09EB10E00F2EFBEBEF2EF12C73
:10022000F02D0F2EF4E8CF2EF02DD8828881882370
:10023000ECF7F8018081887F8830B9F7F701B08248
:10024000C88288818823ECF7F8018081887F883113
:1002500019F00E94F100E9CFDF91CF911F910F912A
:10026000FF90EF90DF90CF90BF9008958093BB00F8
:1002700084E88093BC00ECEBF0E080818823ECF70D
:100280008091B900887F883221F0803321F082E0AC
:10029000089580E0089581E0089584EC8093BC0087
:1002A000ECEBF0E080818823ECF78091BB000895AF
:1002B00084E88093BC00ECEBF0E080818823ECF7CD
:1002C0008091BB00089514B884B18E6284B92498DB
:1002D00015B82A9A29981AB887B18C6087B95398AB
:1002E0004398089580ED8CBD81E88DBD08958EBD45
:1002F0000DB407FEFDCF0895FC019C01215E3F4F28
:1003000081918EBD0DB407FEFDCFE217F307C1F753
:10031000089529988FE295E70197F1F700C0000052
:100320002A9883E20E94770181E00E9477012A9A4D
:100330002A988AE20E94770189E60E9477018DEE71
:100340000E94770185E70E9477012A9A2A9880E324
:100350000E94770189E60E9477018DEE0E94770165
:1003600085E70E9477012A9A2A9881E20E94770104
:1003700080E00E9477012A9A2A9882E20E947701FF
:1003800081E00E9477012A9A2A9884E20E947701EC
:1003900080E00E9477012A9A2A9885E20E947701DC
:1003A00080E00E9477012A9A2A9886E20E947701CB
:1003B00086E00E9477012A9A2A9881E30E947701B9
:1003C0008FE10E9477012A9A2A9880E20E947701A1
:1003D0008AE50E9477012A9A87E893E10197F1F76D
:1003E00000C0000008952FED83E994E02150804083
:1003F0009040E1F700C0000080ED0E94FA0089E122
:100400000E94360187E00E9436010E94F10080EDD3
:100410000E94FA008BE60E94360181E00E943601BC
:100420000E94F10080ED0E94FA008AE10E943601EC
:1004300080E00E9436010E94F10080ED0E94FA00E7
:100440008BE10E94360188E10E9436010E94F10092
:1004500080ED0E94FA0088E30E94360181E00E944C
:1004600036010E94F100089580ED0E94FA008BE3AE
:100470000E94360181ED0E94CB000895CF930E9427
:1004800034020E944D01C82F0E944D016C2F70E074
:10049000762F6627682B072E000C880B990B0E947D
:1004A0005305609314017093150180931601909386
:1004B00017010E944D01C82F0E944D016C2F70E062
:1004C000762F6627682B072E000C880B990B0E944D
:1004D000530560930C0170930D0180930E0190936E
:1004E0000F010E944D01C82F0E944D016C2F70E03A
:1004F000762F6627682B072E000C880B990B0E941D
:100500005305609300017093010180930201909361
:1005100003010E944D01C82F0E944D016C2F70E015
:10052000762F6627682B072E000C880B990B0E94EC
:100530005305609308017093090180930A01909319
:100540000B010E944D01C82F0E944D016C2F70E0DD
:10055000762F6627682B072E000C880B990B0E94BC
:1005600053056093040170930501809306019093F5
:1005700007010E944D01C82F0E944D016C2F70E0B1
:10058000762F6627682B072E000C880B990B0E948C
:100590005305609318017093190180931A01909389
:1005A0001B010E944D01C82F0E9458016C2F70E062
:1005B000762F6627682B072E000C880B990B0E945C
:1005C0005305609310017093110180931201909371
:1005D00013010E94F100CF910895CF93DF93EC01B6
:1005E00029982A9881EE0E9477012A9A2A9880EA0F
:1005F0000E947701CE010E947C012A9A299A81E209
:100600008A95F1F7000029984B9B08C04398429ABD
:1006100080E18A95F1F700C04B99F8CF4298439A50
:100620002A9887E20E94770180E20E9477012A9A45
:100630002A9881EE0E9477012A9ADF91CF9108953E
:10064000CF93DF93CDB7DEB7C55ED1090FB6F8946F
:10065000DEBF0FBECDBF29980E9463010E947201C8
:100660000E9489010E94C5000E94F3013324339443
:100670006894222421F80E943E0220E030E040E805
:1006800058E360910C0170910D0180910E019091E1
:100690000F010E94DF052B013C0120E030E040E823
:1006A00058E36091000170910101809102019091E5
:1006B00003010E94DF054B015C0123E333E343E8C0
:1006C00051E46091040170910501809106019091BF
:1006D00007010E94DF04C652DF4F688379838A8353
:1006E0009B83CA5DD04023E333E343E851E4609148
:1006F00018017091190180911A0190911B010E94BB
:10070000DF04C252DF4F688379838A839B83CE5D87
:10071000D04023E333E343E851E46091100170914A
:10072000110180911201909113010E94DF04CE51BA
:10073000DF4F688379838A839B83C25ED04020E049
:1007400030E04AEA53E46091080170910901809118
:100750000A0190910B010E94DF0428EB3EE142E187
:1007600052E40E9473046B017C0120E030E040E819
:1007700058E36091140170911501809116019091D8
:1007800017010E94DF058E0105541F4F2AE04AE041
:100790000E944C060F5111092AE04AE0C301B20140
:1007A0000E944C060F5111092AE04AE0C501B4012C
:1007B0000E944C060F5111092AE04AE0C701B60118
:1007C0000E944C060F5111092AE04AE0C652DF4F41
:1007D000688179818A819B81CA5DD0400E944C06E4
:1007E0000F5111092AE04AE0C252DF4F6881798136
:1007F0008A819B81CE5DD0400E944C060F51110929
:100800002AE04AE0CE51DF4F688179818A819B815D
:10081000C25ED0400E944C06C752DF4F3882C95D8D
:10082000D040C654DF4F2882CA5BD04083E0C55613
:10083000DF4F8883CB59D04094E0ED969FAFED9782
:1008400085E06E968FAF6E9786E08EAF87E08F8FD4
:1008500089EF90E00197F1F700C00000CE018554C8
:100860009F4F0E94ED0289EF90E00197F1F700C0E1
:100870000000CE0184569F4F0E94ED0289EF90E068
:100880000197F1F700C00000CE0183589F4F0E94EE
:10089000ED0289EF90E00197F1F700C00000CE0172
:1008A000825A9F4F0E94ED0289EF90E00197F1F785
:1008B00000C00000CE01CF960E94ED0289EF90E0CB
:1008C0000197F1F700C00000CE0180960E94ED0272
:1008D00089EF90E00197F1F700C00000C8010E9485
:1008E000ED02C9CE5058BB27AA270E948A040C9457
:1008F000A5050E94970538F00E949E0520F039F466
:100900009F3F19F426F40C9494050EF4E095E7FB50
:100910000C948E05E92F0E94B60558F3BA176207AA
:1009200073078407950720F079F4A6F50C94D80591
:100930000EF4E0950B2EBA2FA02D0B01B9019001FA
:100940000C01CA01A0011124FF27591B99F0593F3E
:1009500050F4503E68F11A16F040A22F232F342F86
:100960004427585FF3CF469537952795A795F040D4
:100970005395C9F77EF41F16BA0B620B730B840BE9
:10098000BAF09150A1F0FF0FBB1F661F771F881FA1
:10099000C2F70EC0BA0F621F731F841F48F48795F9
:1009A00077956795B795F7959E3F08F0B0CF9395EB
:1009B000880F08F09927EE0F9795879508950E9464
:1009C000F3040C94A5050E949E0558F00E9497051B
:1009D00040F029F45F3F29F00C948E0551110C94DE
:1009E000D9050C9494050E94B60568F39923B1F3D8
:1009F000552391F3951B550BBB27AA276217730745
:100A0000840738F09F5F5F4F220F331F441FAA1FD8
:100A1000A9F335D00E2E3AF0E0E832D09150504094
:100A2000E695001CCAF72BD0FE2F29D0660F771F42
:100A3000881FBB1F261737074807AB07B0E809F028
:100A4000BB0B802DBF01FF2793585F4F3AF09E3FAD
:100A5000510578F00C948E050C94D9055F3FE4F3B2
:100A6000983ED4F3869577956795B795F7959F5FF0
:100A7000C9F7880F911D9695879597F90895E1E03C
:100A8000660F771F881FBB1F621773078407BA079B
:100A900020F0621B730B840BBA0BEE1F88F7E095F6
:100AA0000895E89409C097FB3EF490958095709561
:100AB00061957F4F8F4F9F4F9923A9F0F92F96E9AA
:100AC000BB279395F695879577956795B795F1111F
:100AD000F8CFFAF4BB0F11F460FF1BC06F5F7F4FBC
:100AE0008F4F9F4F16C0882311F096E911C07723CE
:100AF00021F09EE8872F762F05C0662371F096E8D7
:100B0000862F70E060E02AF09A95660F771F881FA5
:100B1000DAF7880F9695879597F9089597F99F6763
:100B200080E870E060E008959FEF80EC0895002475
:100B30000A941616170618060906089500240A9442
:100B400012161306140605060895092E0394000CC8
:100B500011F4882352F0BB0F40F4BF2B11F460FF57
:100B600004C06F5F7F4F8F4F9F4F089557FD905880
:100B7000440F551F59F05F3F71F04795880F97FB61
:100B8000991F61F09F3F79F087950895121613061B
:100B90001406551FF2CF4695F1DF08C0161617064A
:100BA0001806991FF1CF869571056105089408957F
:100BB000E894BB2766277727CB0197F908950E9411
:100BC000F2050C94A5050E94970538F00E949E0539
:100BD00020F0952311F00C948E050C9494051124AB
:100BE0000C94D9050E94B60570F3959FC1F3950F3B
:100BF00050E0551F629FF001729FBB27F00DB11DA1
:100C0000639FAA27F00DB11DAA1F649F6627B00D30
:100C1000A11D661F829F2227B00DA11D621F739F19
:100C2000B00DA11D621F839FA00D611D221F749F27
:100C30003327A00D611D231F849F600D211D822F6E
:100C4000762F6A2F11249F5750409AF0F1F0882395
:100C50004AF0EE0FFF1FBB1F661F771F881F9150C2
:100C60005040A9F79E3F510580F00C948E050C94DE
:100C7000D9055F3FE4F3983ED4F386957795679561
:100C8000B795F795E7959F5FC1F7FE2B880F911DEC
:100C90009695879597F90895EF920F931F93CF93A9
:100CA000DF93E80147FD02C034E001C034E1042EC7
:100CB000000C550B57FF03C0519541955109E32E88
:100CC000022F242FAE010E946C06CE01DF91CF913E
:100CD0001F910F91EF900895A9E0B0E0E2E7F6E0F0
:100CE0000C94A4086A01122FB02E2BE3201720F0D9
:100CF000FF24F394F00E02C02CE3F22E0F2D27E018
:100D0000AE014F5F5F4F0E94C607BC014981842F2F
:100D10008970813031F0E1FC06C0E0FE06C090E24F
:100D200005C09DE203C09BE201C090E05E2D5071C2
:100D300043FF3CC0911102C083E001C084E08117F1
:100D400018F4212F281B01C020E051110BC0F6011F
:100D5000822F30E2882319F031938150FBCFC20EED
:100D6000D11C20E0992329F0D6019C93F6013196FD
:100D70006F01C6010396E2FE0AC03EE4D6013C9331
:100D800041E411964C93119712963C9306C03EE6AF
:100D9000F601308341E641833283FC01322F40E289
:100DA000332309F442C041933150FACF42FF44C08B
:100DB000911102C083E001C084E0811718F4212F53
:100DC000281B01C020E051110BC0F601822F30E238
:100DD000882319F031938150FBCFC20ED11C20E043
:100DE000992329F0D6019C93F60131966F01C60133
:100DF0000396E2FE0BC039E4D6013C933EE4119623
:100E00003C93119736E412963C9307C039E6F601FD
:100E100030833EE6318336E63283FC01322F40E2F6
:100E2000332319F041933150FBCFFC01E20FF11D48
:100E300010828EEF9FEFA6C021E030E0911102C03A
:100E400020E030E0161617061CF4FB01319602C0B4
:100E5000E1E0F0E02E0F3F1FBB2021F0EB2DF0E092
:100E6000319602C0E0E0F0E02E0F3F1FE12FF0E0EE
:100E70002E173F071CF4121B212F01C020E08E2DDE
:100E8000887159F4F601822F30E2882319F03193EA
:100E90008150FBCFC20ED11C20E0992329F0D6014E
:100EA0009C93F60131966F0151110BC0F601822F10
:100EB00090E3882319F091938150FBCFC20ED11C8F
:100EC00020E00F2D060F9A81342F307144FF03C0AC
:100ED000913309F40150101624F4093018F008E099
:100EE00001C001E0AB0177FF02C040E050E0FB0130
:100EF000E41BF50BA1E0B0E0AC0FBD1FEA0FFB1F38
:100F00008EE2A82E4B01801A91080B2D10E011954E
:100F1000019511094F3FBFEF5B0721F4D601AC9259
:100F200011966D01641775072CF08416950614F45C
:100F3000818101C080E3415051093196D60111965B
:100F40007D014017510724F0D6018C936701E2CF51
:100F50006417750739F4963320F4953319F4311179
:100F600001C081E3F6018083F701822F90E288239C
:100F700019F091938150FBCFF701E20FF11D108220
:100F800080E090E02996ECE00C94C008283008F04E
:100F900027E03327DA01990F311D87FD9160009614
:100FA0006105710539F432602E5F3D9330E32A9577
:100FB000E1F708959F3F30F080387105610509F031
:100FC0003C5F3C5F3D93913008F08068911DDF935A
:100FD000CF931F930F93FF92EF92192F987F9695BF
:100FE000E92F96959695E90FFF27EE53FF4F992726
:100FF0003327EE24FF24A701E70105900894079406
:1010000028F4360FE71EF81E491F511D660F771F83
:10101000881F991F0694A1F70590079428F4E70EFE
:10102000F81E491F561FC11D770F881F991F661F85
:101030000694A1F70590079428F4F80E491F561F4F
:10104000C71FD11D880F991F661F771F0694A1F730
:101050000590079420F4490F561FC71FD81F990FFA
:10106000661F771F881F0694A9F784911095177043
:1010700041F0D695C79557954795F794E7941A95FB
:10108000C1F7E8E6F0E06894159015913591659107
:10109000959105907FE27395E118F10A430B560B89
:1010A000C90BD009C0F7E10CF11E431F561FC91F21
:1010B000D01D7EF4703311F48A95E6CFE894015088
:1010C00030F0080F0AF40027021708F4202F2395A8
:1010D000022F7A3328F079E37D932A95E9F710C03F
:1010E0007D932A9589F60694979567953795179578
:1010F0001794E118F10A430B560BC90BD00998F06D
:1011000023957E9173957A3308F070E37C932013D6
:10111000B8F77E9170617D9330F0839571E37D9394
:1011200070E32A95E1F71124EF90FF900F911F9142
:10113000CF91DF91992787FD909508952F923F9247
:101140004F925F926F927F928F929F92AF92BF92D7
:10115000CF92DF92EF92FF920F931F93CF93DF9383
:10116000CDB7DEB7CA1BDB0B0FB6F894DEBF0FBEE0
:10117000CDBF09942A88398848885F846E847D842D
:101180008C849B84AA84B984C884DF80EE80FD802F
:101190000C811B81AA81B981CE0FD11D0FB6F894A5
:0E11A000DEBF0FBECDBFED010895F894FFCF66
:00000001FF
